:100000000C9446000C9465000C9465000C946500FB
:100010000C9465000C9465000C9465000C946500CC
:100020000C9465000C9465000C9465000C946500BC
:100030000C9465000C9465000C9465000C946500AC
:100040000C9465000C9465000C947B050C94650081
:100050000C9465000C9465000C9465000C9465008C
:100060000C9465000C9465000C9465000C9465007C
:100070000C9465000C9465000C9489020C94650046
:100080000C9465000C9465000C94650011241FBE4F
:10009000CFEFD0E1DEBFCDBF12E0A0E0B1E0E8EDF0
:1000A000F2E200E00BBF02C007900D92AE35B1073F
:1000B000D9F713E0AEE5B2E001C01D92A632B10758
:1000C000E1F70E9467000C946A110C940000AF9253
:1000D000CF92EF92FF920F931F93F8940E94B80271
:1000E0000E94D10560E070E880E790E020E032EC0B
:1000F00041E050E008E0EE24CC24C394AA240E94FE
:10010000DB020E94710378940E94F0010E94F501C5
:1001100088E893E128EB30E0F9013197F1F7019796
:10012000D9F780E091E00E946D0481E090E062E107
:1001300070E00E946C0688E893E128EB30E0F9015A
:100140003197F1F70197D9F782E090E063E170E031
:100150000E946C0688E893E128EB30E0F9013197C2
:10016000F1F70197D9F783E090E064E170E00E9435
:100170006C0688E893E128EB30E0F9013197F1F75C
:100180000197D9F72DB73EB7285030400FB6F894F5
:100190003EBF0FBE2DBFEDB7FEB7319688E191E0AF
:1001A000ADB7BEB712969C938E93119781E090E005
:1001B0009383828382E090E09583848383E090E060
:1001C000978386830E94840428E833E18DB79EB725
:1001D00008960FB6F8949EBF0FBE8DBF48EB50E057
:1001E000CA010197F1F721503040D1F788E893E137
:1001F00028EB30E0F9013197F1F70197D9F788E85A
:1002000093E128EB30E0F9013197F1F70197D9F745
:1002100088E893E128EB30E0F9013197F1F7019795
:10022000D9F782E190E00E94D2067C0183E190E060
:100230000E94D2068C0184E190E00E94D206ADB704
:10024000BEB718970FB6F894BEBF0FBEADBFEDB7DF
:10025000FEB731962BE331E012963C932E93119723
:10026000F382E28215830483978386830E94840449
:100270002DB73EB7285F3F4F0FB6F8943EBF0FBE75
:100280002DBFFFCF20E030E003C000002F5F3F4FC5
:1002900028173907D0F30895FC0190E07CE814C0DA
:1002A000892F869590FF03C0982F972701C0982F1C
:1002B000842F852309F09727440F2F5F3F4F283065
:1002C000310571F731966150662329F0508141E084
:1002D00020E030E0E5CF892F0895FB01982F92951B
:1002E0009F70906390838F70806381830895CF9215
:1002F000DF92EF92FF920F931F93CF93DF93EA0168
:1003000020E030E040E251E40E943E090E94720B7E
:100310009B016115710539F480E3FE0181939EE232
:100320009983818349C077FF05C08DE28993309519
:1003300021953F4F8E01FF24F394C9016AE070E0DC
:100340000E94480E805DD8018D938D01C9016AE03D
:1003500070E00E94480E9B016115710569F7EF2C52
:10036000E6949E01EF2DF0E03197AE014E0F5F1F36
:1003700031966A0190E0BE016E0F7F1F11C0D90156
:100380008C91DB018C93D6018C91D9018D939D01C9
:10039000DB018C91D6018C939F5F0894C108D10832
:1003A0009E1568F3B1E0FB1649F488818A8380E3E7
:1003B00088838EE28983F801128209C0EC0FFD1F49
:1003C000DA018C9180838EE28C93F8011182DF91A7
:1003D000CF911F910F91FF90EF90DF90CF900895F4
:1003E000889A899A909A919A08950E943C06089555
:1003F000FC0113821282118210820895CF93DF9341
:10040000EC01DB01E881F9811396FC93EE931297DE
:1004100011961C921E92309719F07183608302C06E
:100420007B836A83B983A8838E819F8101969F8392
:100430008E83DF91CF910895CF93DF93EC01DB01A1
:10044000E881F9811396FC93EE93129711961C9212
:100450001E92309719F07183608302C07B836A8398
:10046000B983A8838E819F8101969F838E83DF91BC
:10047000CF910895CF93DF93EC01FB01A281B3816B
:1004800080819181109719F08D939C9302C09B837A
:100490008A83A081B18162817381109729F01396BC
:1004A0007C936E93129702C0798368838E819F81BB
:1004B00001979F838E83DF91CF910895CF93DF9330
:1004C000FC01C081D181209719F0BE010E943A023F
:1004D000CE01DF91CF910895CF93DF93FC01C281CC
:1004E000D381209719F0BE010E943A02CE01DF911C
:1004F000CF910895CF93DF93EC01CE010E945E026D
:10050000892BD9F7DF91CF910895FC0186819781DE
:1005100008951F920F920FB60F920BB60F921124EF
:100520002F933F934F935F936F937F938F939F93FB
:10053000AF93BF93EF93FF9380919C00E091600293
:10054000F0916102309709F00995FF91EF91BF9109
:10055000AF919F918F917F916F915F914F913F915B
:100560002F910F900BBE0F900FBE0F901F901895FC
:100570001098119A089590935F0280935E020895F7
:100580008A988B9A089590936102809360020895EF
:10059000DF93CF93CDB7DEB72A970FB6F894DEBFBF
:1005A0000FBECDBF2A960FB6F894DEBF0FBECDBFEB
:1005B000CF91DF9108952F923F924F925F926F9269
:1005C0007F928F929F92AF92BF92CF92DF92EF92E3
:1005D000FF920F931F933B014C0119012A01D02E6A
:1005E000BE2C8A2D1AB81BB8813081F4599AC401E7
:1005F000B3010E94C60B7B018C01C201B1010E94B4
:10060000140B20E030E040E051E40FC05998C401E1
:10061000B3010E94C60B7B018C01C201B1010E9493
:10062000140B20E030E040E851E40E943E099B01B9
:10063000AC01C801B7010E94380A20E030E040E870
:100640005FE30E94E00820E030E04AE754E40E94C3
:100650003E090E9468079B01CB0160E177E20E949E
:10066000340E845F914020F0C9018C509E4F01C030
:10067000C90168EE73E00E94340E88E18AB988E00F
:10068000D81619F486E080939500BB2051F4809130
:1006900095008F7D80939500809195008F7E80934B
:1006A000950041E0C41621F480919500877F03C036
:1006B0008091950088608093950069B910929000B0
:1006C0001F910F91FF90EF90DF90CF90BF90AF9070
:1006D0009F908F907F906F905F904F903F902F9062
:1006E0000895579A0895579808955D9BFECF8CB949
:1006F00008955F9BFECF8CB108952F923F924F9249
:100700005F926F927F928F929F92AF92BF92CF92A1
:10071000DF92EF92FF920F931F933B014C0119015F
:100720002A01D02EBE2C8A2D8130A1F480919B000D
:10073000826080939B00C401B3010E94C60B7B01C1
:100740008C01C201B1010E94140B20E030E040E0B6
:1007500051E413C080919B008D7F80939B00C40166
:10076000B3010E94C60B7B018C01C201B1010E9442
:10077000140B20E030E040E851E40E943E099B0168
:10078000AC01C801B7010E94380A20E030E040E81F
:100790005FE30E94E00820E030E04AE754E40E9472
:1007A0003E090E9468079B01CB0160E177E20E944D
:1007B000340E845F914020F0C9018C509E4F01C0DF
:1007C000C90168EE73E00E94340E88E180939A00BC
:1007D00088E0D81619F486E080939D00BB2051F480
:1007E00080919D008F7D80939D0080919D008F7EE4
:1007F00080939D0041E0C41621F480919D00877F85
:1008000003C080919D00886080939D006093990053
:10081000109298001F910F91FF90EF90DF90CF9072
:10082000BF90AF909F908F907F906F905F904F9010
:100830003F902F900895EAE9F0E0808180688083FE
:100840000895EAE9F0E080818F7780830895982FFA
:1008500080919B0085FFFCCF90939C000895809130
:100860009B0087FFFCCF80919C000895AC01DC01C8
:100870000D900020E9F71197A81BB90B20E030E09C
:100880000CC0FA01E20FF31FE08180919B0085FF0D
:10089000FCCFE0939C002F5F3F4F2A173B078CF360
:1008A00008950F931F93DF93CF93CDB7DEB7FE016B
:1008B00037966191719106E612E0C801AF010E947E
:1008C0009B0EF801E80FF91F1082C8010E94360440
:1008D000CF91DF911F910F910895DC010D900020C1
:1008E000E9F71197A81BB90B20E030E009C0FC0123
:1008F000E20FF31FE0815D9BFECFECB92F5F3F4F0E
:100900002A173B07A4F308950F931F93DF93CF9308
:10091000CDB7DEB7FE0137966191719106E612E020
:10092000C801AF010E949B0EF801E80FF91F108269
:10093000C8010E946D04CF91DF911F910F9108951E
:100940000F931F93CF93DF9380EF92E00E94850275
:1009500090936302809362028EED92E00E94850282
:10096000909365028093640286EC92E00E946C0290
:10097000EC01009719F420E030E00FC00EEE12E019
:100980006E817F814C815D81C8010E94920E8EE054
:1009900093E0BE010E94FE019801C901DF91CF9151
:1009A0001F910F9108950E94A0040895EF92FF9265
:1009B0000F931F93CF93DF9388EFE82E82E0F82EFA
:1009C0001BC00C811D816E817F81C701A8010E941F
:1009D000920EE8EFF2E098012E0F3F1F05C08081D4
:1009E0005D9BFECF8CB93196E217F307C1F780EF1C
:1009F00092E0BE010E94FE018EED92E00E946C0228
:100A0000EC010097F1F6DF91CF911F910F91FF90CC
:100A1000EF900895AF92BF92CF92DF92EF92FF9244
:100A20000F931F93CF93DF936C01DC010D90002097
:100A3000E9F78D0101501040081B190BE8012197BF
:100A4000D695C7952196F89480EF92E00E94850292
:100A50008C179D070CF440C0EE24FF24219792E0F0
:100A6000A92EB12C20C080EF92E00E946C02DC0124
:100A70000097B1F016962D913C911797F601819150
:100A800091916F01F901918380831596BC92AE928A
:100A900014978EED92E0BD010E94FE0102501040BD
:100AA0000894E11CF11CEC16FD06ECF280EF92E0DC
:100AB0000E946C02EC01009769F08E819F81B60163
:100AC000A8010E94920E1D830C838EED92E0BE0160
:100AD0000E94FE010E94D6047894DF91CF911F916D
:100AE0000F91FF90EF90DF90CF90BF90AF9008955F
:100AF0000E940A0508951F920F920FB60F920BB62F
:100B00000F9211242F933F934F935F936F937F9393
:100B10008F939F93AF93BF93EF93FF93DF93CF9305
:100B20000F92CDB7DEB78EE093E00E9485021816D3
:100B30001906CCF48EE093E00E946C02DC01009771
:100B400091F08CB189831696ED91FC911797808373
:100B500081E090E015969C938E93149786EC92E03A
:100B6000BD010E94FE01E0915E02F0915F023097AC
:100B700011F0898109950F90CF91DF91FF91EF914D
:100B8000BF91AF919F918F917F916F915F914F91A5
:100B90003F912F910F900BBE0F900FBE0F901F90A3
:100BA0001895CF92DF92EF92FF920F931F938EEDE5
:100BB00092E00E947A0260EFC62E62E0D62EC60155
:100BC0000E947A0206EE12E01093D5020093D4023E
:100BD0005EECE52E52E0F52EC601B7010E94FE0143
:100BE0000E5F1F4F1093DD020093DC0288E090E05F
:100BF000E80EF91EC601B7010E94FE0186EC92E0E4
:100C00000E947A024EE0C42E43E0D42EC6010E9418
:100C10007A020AE013E010931D0300931C0336E1EF
:100C2000E32E33E0F32EC601B7010E94FE010E5FF2
:100C30001F4F109325030093240388E090E0E80EF3
:100C4000F91EC601B7010E94FE011092F90210922E
:100C5000F8021092EF021092EE021092ED02109242
:100C6000EC021092EB021092EA021F910F91FF909A
:100C7000EF90DF90CF90089581E080937000809393
:100C80007100089584EA809374008091740087FF56
:100C9000FCCF08958093730084E880937400809162
:100CA000740087FFFCCF089584E8809374008091DE
:100CB000740087FFFCCF80917300089584EC8093CB
:100CC00074008091740087FFFCCF809173000895B9
:100CD00084E9809374000895982F44EA30EA24E868
:100CE000409374008091740087FFFCCF30937300B1
:100CF000209374008091740087FFFCCF8091710075
:100D0000887F883169F76093730084E8809374006A
:100D10008091740087FFFCCF9093730084E88093E8
:100D200074008091740087FFFCCF84E98093740085
:100D30000895582F292F74EA30EA94E870937400CC
:100D40008091740087FFFCCF309373009093740000
:100D50008091740087FFFCCF80917100887F88317B
:100D600069F76093730084E8809374008091740045
:100D700087FFFCCF852F922F9C01F90194E80AC0D0
:100D8000808180937300909374008091740087FF3A
:100D9000FCCF31968E2F851B841790F384E98093C6
:100DA00074000895982F44EA30EA24E840937400D0
:100DB0008091740087FFFCCF309373002093740000
:100DC0008091740087FFFCCF80917100887F88310B
:100DD00069F79093730084E88093740080917400A5
:100DE00087FFFCCF84EA809374008091740087FFB2
:100DF000FCCF81EA8093730084E880937400809133
:100E0000740087FFFCCF84E88093740080917400A5
:100E100087FFFCCF8091730094E99093740008954C
:100E2000782F592F34EA20EA94E8309374008091A7
:100E3000740087FFFCCF209373009093740080911F
:100E4000740087FFFCCF80917100887F883169F73B
:100E50006093730084E8809374008091740087FF2E
:100E6000FCCF84EA809374008091740087FFFCCFEC
:100E700081EA8093730084E8809374008091740009
:100E800087FFFCCF872F952F9C01F90150E041503F
:100E9000504024EC09C0209374008091740087FFB7
:100EA000FCCF8091730081938E2F871B90E0841775
:100EB00095078CF384E8809374008091740087FF19
:100EC000FCCF80917300808384E98093740008953F
:100ED000EF92FF920F931F937B018C0120E030E093
:100EE00040E05FE40E94E40A88238CF0C801B70167
:100EF00020E030E040E05FE40E94E0080E94720BD6
:100F00009B01AC01205030404040504806C0C80111
:100F1000B7010E94720B9B01AC01B901CA011F917C
:100F20000F91FF90EF900895A0E0B0E0EAE9F7E0BC
:100F30000C945B0EDC012B01FA019C91923008F4B9
:100F400039C1EB018881823008F433C1943069F4EF
:100F5000843009F02FC111969C91119789819817BF
:100F600009F428C1A6E5B1E025C1843009F421C106
:100F70008230A9F4923009F01DC19A01AD0188E0D8
:100F8000EA010990AE01E90109929E018150C1F781
:100F9000E201898111969C918923818308C1923055
:100FA00009F407C112962D903C901397EB018A81AA
:100FB0009B811496AD90BD90CD90DC901797EC80FE
:100FC000FD800E811F819101281B390BB90137FF6C
:100FD00004C066277727621B730B603271050CF023
:100FE00061C0121613066CF537014801062E04C0C5
:100FF00096948794779467940A94D2F721E030E02E
:1010000040E050E004C0220F331F441F551F6A9573
:10101000D2F721503040404050402E213F21402304
:101020005123211531054105510521F021E030E022
:1010300040E050E079018A01E628F72808291929BB
:101040003CC0232BD1F1260E371E35014601062E5A
:1010500004C096948794779467940A94D2F721E019
:1010600030E040E050E004C0220F331F441F551F02
:101070006A95D2F721503040404050402A213B2110
:101080004C215D21211531054105510521F021E05B
:1010900030E040E050E059016A01A628B728C8288E
:1010A000D9280BC0821593052CF01C01AA24BB245F
:1010B000650103C0EE24FF24870111969C91D201A3
:1010C00011968C91981709F445C0992339F0A8011D
:1010D00097012A193B094C095D0906C0A601950133
:1010E0002E193F09400B510B57FD08C01182338266
:1010F000228224833583468357831DC081E0818308
:101100003382228288279927DC01821B930BA40B50
:10111000B50B84839583A683B7830DC0220F331F3D
:10112000441F551F248335834683578382819381CF
:101130000197938382832481358146815781DA0127
:10114000C9010197A109B1098F5F9F4FAF4FBF43FD
:1011500028F30BC0918333822282EA0CFB1C0C1D06
:101160001D1DE482F5820683178383E0808324813A
:1011700035814681578157FF1AC0C901AA2797FDBB
:10118000A095BA2F81709070A070B0705695479559
:1011900037952795822B932BA42BB52B848395838E
:1011A000A683B78382819381019693838283DF0133
:1011B00001C0D201CD01CDB7DEB7E2E10C94770ECC
:1011C000A0E2B0E0E6EEF8E00C94670E69837A8363
:1011D0008B839C832D833E834F835887E9E0EE2EDB
:1011E000F12CEC0EFD1ECE010196B7010E94630D9D
:1011F0008E010F5E1F4FCE010596B8010E94630D50
:101200008A8991E089278A8BC701B801AE01475EC0
:101210005F4F0E9494070E948E0CA096E6E00C940B
:10122000830EA0E2B0E0E7E1F9E00C94670E698379
:101230007A838B839C832D833E834F835887F9E089
:10124000EF2EF12CEC0EFD1ECE010196B7010E948F
:10125000630D8E010F5E1F4FCE010596B8010E94EF
:10126000630DC701B801AE01475E5F4F0E9494074E
:101270000E948E0CA096E6E00C94830EA0E2B0E0F3
:10128000E4E4F9E00C945B0E69837A838B839C839E
:101290002D833E834F835887CE010196BE01675F41
:1012A0007F4F0E94630DCE010596BE016F5E7F4F9A
:1012B0000E94630D9985923088F089898230C8F048
:1012C000943019F4823051F404C0843029F49230FF
:1012D00081F486E591E0C6C0923049F420E09A8519
:1012E0008A89981321E02A87CE010996BBC08230F3
:1012F00049F420E09A858A89981321E02A8BCE014F
:101300004196B0C02D843E844F8458886D887E8875
:101310008F88988CEE24FF248701AA24BB246501C2
:1013200040E050E060E070E0E0E0F0E0C10181709A
:101330009070892BE9F0E60CF71C081D191D9A0125
:10134000AB012A0D3B1D4C1D5D1D80E090E0A0E02F
:10135000B0E0E614F7040805190520F481E090E0F8
:10136000A0E0B0E0BA01A901480F591F6A1F7B1F16
:10137000AA0CBB1CCC1CDD1C97FE08C081E090E0D1
:10138000A0E0B0E0A82AB92ACA2ADB2A3196E032C6
:10139000F10549F0660C771C881C991C56944794FB
:1013A00037942794C3CFFA85EA892B893C898B85AA
:1013B0009C85280F391F2E5F3F4F17C0CA018170CF
:1013C0009070892B61F016950795F794E79480E06B
:1013D00090E0A0E0B0E8E82AF92A0A2B1B2B7695CA
:1013E0006795579547952F5F3F4F77FDE7CF0CC027
:1013F000440F551F661F771F17FD4160EE0CFF1C41
:10140000001F111F21503040403090E0590790E0FC
:10141000690790E4790760F32B8F3C8FDB01CA01E9
:101420008F779070A070B07080349105A105B105E0
:1014300061F447FD0AC0E114F1040105110529F02A
:10144000405C5F4F6F4F7F4F40781A8EFE1711F050
:1014500081E08A8F4D8F5E8F6F8F78A383E0898FB5
:10146000CE0149960E948E0CA096E2E10C94770E74
:10147000A8E1B0E0EEE3FAE00C94630E69837A83AE
:101480008B839C832D833E834F835887B9E0EB2E5B
:10149000F12CEC0EFD1ECE010196B7010E94630DEA
:1014A0008E010F5E1F4FCE010596B8010E94630D9D
:1014B0002985223008F47EC03989323010F4B80111
:1014C0007CC08A859A8989278A87243011F0223046
:1014D00031F4231709F06EC066E571E06EC0343058
:1014E00039F41D861E861F86188A1C861B8604C03A
:1014F000323021F484E08987B7015FC02B853C85B9
:101500008B899C89281B390B3C872B87ED84FE84B3
:101510000F851889AD88BE88CF88D88CEA14FB0463
:101520000C051D0540F4EE0CFF1C001F111F21507F
:1015300030403C872B8720E030E040E050E080E006
:1015400090E0A0E0B0E460E070E0EA14FB040C0579
:101550001D0540F0282B392B4A2B5B2BEA18FB0882
:101560000C091D09B695A79597958795EE0CFF1C5C
:10157000001F111F6F5F7F4F6F31710531F7DA0167
:10158000C9018F779070A070B07080349105A1056B
:10159000B10561F427FD0AC0E114F104010511054C
:1015A00029F0205C3F4F4F4F5F4F20782D873E87BB
:1015B0004F87588BBE01675F7F4FCB010E948E0C17
:1015C0006896EAE00C947F0EA8E1B0E0EAEEFAE05B
:1015D0000C94670E69837A838B839C832D833E836F
:1015E0004F83588789E0E82EF12CEC0EFD1ECE01CA
:1015F0000196B7010E94630D8E010F5E1F4FCE0151
:101600000596B8010E94630D8985823040F0898972
:10161000823028F0C701B8010E94DB0D01C08FEFB6
:101620006896E6E00C94830EA8E0B0E0EAE1FBE007
:101630000C94640E9B01AC0183E08983DA01C9013B
:101640008827B7FD83959927AA27BB27B82E211590
:1016500031054105510519F482E089833AC0882398
:10166000A9F0203080E0380780E0480780E858077C
:1016700029F460E070E080E09FEC30C0EE24FF24AD
:101680008701E21AF30A040B150B02C079018A01E3
:101690008EE1C82ED12CDC82CB82ED82FE820F83BC
:1016A0001887C801B7010E943F0C01971816190648
:1016B00084F4082E04C0EE0CFF1C001F111F0A94B6
:1016C000D2F7ED82FE820F831887C81AD90ADC820E
:1016D000CB82BA82CE0101960E948E0C2896E9E058
:1016E0000C94800EACE0B0E0E8E7FBE00C946B0EED
:1016F00069837A838B839C83CE010196BE016B5FE5
:101700007F4F0E94630D8D81823061F1823050F1F4
:10171000843021F48E81882351F12EC02F813885A9
:1017200037FD20C06E812F3131051CF06623F9F0A2
:1017300023C08EE190E0821B930B29853A854B856F
:101740005C8504C056954795379527958A95D2F7BD
:101750006623B1F050954095309521953F4F4F4FFE
:101760005F4F0EC020E030E040E050E009C02FEFB6
:101770003FEF4FEF5FE704C020E030E040E050E88B
:10178000B901CA012C96E2E00C94870EA8E0B0E003
:10179000ECECFBE00C94630E7B018C016115710590
:1017A0008105910519F482E0898360C083E0898313
:1017B0008EE1C82ED12CDC82CB82ED82FE820F839B
:1017C0001887C801B7010E943F0CFC013197F7FF51
:1017D0003BC0222733272E1B3F0B57016801022EE7
:1017E00004C0D694C794B794A7940A94D2F740E063
:1017F00050E060E070E081E090E0A0E0B0E004C084
:10180000880F991FAA1FBB1F2A95D2F70197A1091C
:10181000B1098E219F21A023B1230097A105B10515
:1018200021F041E050E060E070E04A295B296C293A
:101830007D294D835E836F8378878EE190E08E1BD8
:101840009F0B9C838B8312C0309781F00E2E04C0B7
:10185000EE0CFF1C001F111F0A94D2F7ED82FE82CE
:101860000F831887CE1ADF0ADC82CB821A82CE0160
:1018700001960E948E0C2896EAE00C947F0EEF925F
:10188000FF920F931F937B018C0180E0E81680E0AC
:10189000F80681E0080780E0180788F48FEFE81663
:1018A000F1040105110531F028F088E090E0A0E096
:1018B000B0E017C080E090E0A0E0B0E012C080E0AF
:1018C000E81680E0F80680E0080781E0180728F0B5
:1018D00088E190E0A0E0B0E004C080E190E0A0E00A
:1018E000B0E020E230E040E050E0281B390B4A0B2A
:1018F0005B0B04C016950795F794E7948A95D2F789
:10190000F701E25AFE4F8081281B31094109510934
:10191000C9011F910F91FF90EF900895DF92EF9210
:10192000FF920F931F93FC01E480F58006811781DD
:10193000D1808081823048F480E090E0A0E1B0E086
:10194000E82AF92A0A2B1B2BA5C0843009F49FC072
:10195000823021F4EE24FF24870105C0E114F10454
:101960000105110519F4E0E0F0E096C06281738191
:101970009FEF623879070CF05BC022E83FEF261B2F
:10198000370B2A3131052CF020E030E040E050E008
:101990002AC0B801A701022E04C076956795579515
:1019A00047950A94D2F781E090E0A0E0B0E004C04F
:1019B000880F991FAA1FBB1F2A95D2F70197A1096B
:1019C000B1098E219F21A023B1230097A105B10564
:1019D00021F081E090E0A0E0B0E09A01AB01282B7B
:1019E000392B4A2B5B2BDA01C9018F779070A070DD
:1019F000B07080349105A105B10539F427FF09C005
:101A0000205C3F4F4F4F5F4F04C0215C3F4F4F4F13
:101A10005F4FE0E0F0E02030A0E03A07A0E04A07A6
:101A2000A0E45A0710F0E1E0F0E079018A0127C054
:101A30006038710564F5FB01E158FF4FD801C7011B
:101A40008F779070A070B07080349105A105B105BA
:101A500039F4E7FE0DC080E490E0A0E0B0E004C0FF
:101A60008FE390E0A0E0B0E0E80EF91E0A1F1B1F14
:101A700017FF05C016950795F794E794319687E010
:101A800016950795F794E7948A95D1F705C0EE244B
:101A9000FF248701EFEFF0E06E2F679566276795CB
:101AA000902F9F77D794DD24D7948E2F8695492F3A
:101AB000462B582F5D29B701CA011F910F91FF9046
:101AC000EF90DF900895FC01DB014081518122817C
:101AD000622F6F7770E0221F2227221F9381892FA8
:101AE000880F822B282F30E0991F9927991F119674
:101AF0009C93119721153105A9F5411551056105F3
:101B0000710511F482E037C082E89FEF13969C9331
:101B10008E9312979A01AB0167E0220F331F441F87
:101B2000551F6A95D1F783E08C930DC0220F331FA8
:101B3000441F551F12968D919C91139701971396F0
:101B40009C938E931297203080E0380780E04807FE
:101B500080E4580758F314962D933D934D935C936E
:101B6000179708952F3F310579F441155105610507
:101B7000710519F484E08C93089564FF03C081E03B
:101B80008C9312C01C9210C02F57304013963C9378
:101B90002E93129783E08C9387E0440F551F661FA6
:101BA000771F8A95D1F7706414964D935D936D936A
:101BB0007C93179708951F93DC01FB019C91923051
:101BC00008F447C08081823008F443C0943051F457
:101BD00011961C91843099F58181682F70E0611B0A
:101BE00071093FC0843021F0923031F48230B9F174
:101BF0008181882389F12DC011961C911197823023
:101C0000F1F081811817D9F412962D913C91139718
:101C1000828193818217930794F028173907BCF0CB
:101C200014968D919D910D90BC91A02D24813581AC
:101C300046815781281739074A075B0718F4112393
:101C400041F00AC082179307A407B50740F4112397
:101C500019F061E070E005C06FEF7FEF02C060E057
:101C600070E0CB011F910895AA1BBB1B51E107C077
:101C7000AA1FBB1FA617B70710F0A61BB70B881F1C
:101C8000991F5A95A9F780959095BC01CD010895AB
:101C900097FB092E07260AD077FD04D0E5DF06D092
:101CA00000201AF4709561957F4F0895F6F790958E
:101CB00081959F4F08952F923F924F925F926F921E
:101CC0007F928F929F92AF92BF92CF92DF92EF92CC
:101CD000FF920F931F93CF93DF93CDB7DEB7CA1B4D
:101CE000DB0B0FB6F894DEBF0FBECDBF09942A8878
:101CF000398848885F846E847D848C849B84AA8420
:101D0000B984C884DF80EE80FD800C811B81AA81AC
:101D1000B981CE0FD11D0FB6F894DEBF0FBECDBF77
:101D2000ED010895FB01DC0102C001900D924150CC
:101D30005040D8F708950F931F93DF93CF93CDB7FB
:101D4000DEB72E970FB6F894DEBF0FBECDBF8C0165
:101D500086E08C831A8309838FEF9FE79E838D83B0
:101D6000CE0101960E94C40EEF81F885E00FF11FAD
:101D700010822E960FB6F894DEBF0FBECDBFCF9166
:101D8000DF911F910F9108952F923F924F925F9292
:101D90006F927F928F929F92AF92BF92CF92DF927B
:101DA000EF92FF920F931F93DF93CF93CDB7DEB7E0
:101DB0002B970FB6F894DEBF0FBECDBF3C012B01B1
:101DC0005A01FC0117821682838181FD03C06FEFE7
:101DD0007FEFC6C19AE0892E1E010894211C311C98
:101DE000F3012381F20123FD859123FF81912F01CE
:101DF000882309F4B2C1853239F423FD859123FF8C
:101E000081912F01853229F490E0B3010E94E01006
:101E1000E7CF982FFF24EE249924FFE1FF15D0F09F
:101E20009B3269F09C3228F4903259F0933291F44D
:101E30000EC09D3249F0903369F441E024C052E075
:101E4000F52A84E0F82A28C098E0F92A25C0E0E1C4
:101E5000FE2A22C0F7FC29C0892F80538A3070F4F3
:101E6000F6FE05C0989C902C1124980E15C0E89C95
:101E7000E02C1124E80EF0E2FF2A0EC09E3229F475
:101E8000F6FC6BC140E4F42A07C09C3619F450E814
:101E9000F52A02C0983649F4F20123FD959123FFFB
:101EA00091912F01992309F0B8CF892F8554833060
:101EB00018F08052833038F444E050E0A40EB51E90
:101EC0005FE359830FC0933631F0933779F0933540
:101ED00009F056C020C0F5018081898342E050E0BE
:101EE000A40EB51E610101E010E012C0F501C08032
:101EF000D180F6FC03C06FEF7FEF02C0692D70E068
:101F000042E050E0A40EB51EC6010E94D5108C011F
:101F10005FE7F52214C0F501C080D180F6FC03C054
:101F20006FEF7FEF02C0692D70E042E050E0A40E39
:101F3000B51EC6010E94CA108C0150E8F52AF3FEB6
:101F400007C01AC080E290E0B3010E94E010EA945A
:101F50008E2D90E008171907A8F30EC0F601F7FCC4
:101F60008591F7FE81916F0190E0B3010E94E0102E
:101F7000E110EA94015010400115110579F7EAC00B
:101F8000943611F0993669F5F7FE08C0F501208105
:101F900031814281538184E090E00AC0F501808163
:101FA00091819C01442737FD4095542F82E090E0B9
:101FB000A80EB91E9FE6F92257FF09C0509540951B
:101FC000309521953F4F4F4F5F4FE0E8FE2ACA0101
:101FD000B901A1012AE030E00E940C11D82ED218DC
:101FE00040C0953729F41F2D1F7E2AE030E01DC028
:101FF0001F2D197F9F3661F0903720F4983509F036
:10200000ACC00FC0903739F0983709F0A6C004C0B3
:1020100028E030E00AC0106114FD146020E130E0D7
:1020200004C014FD166020E132E017FF08C0F5017E
:10203000608171818281938144E050E008C0F501A4
:1020400080819181BC0180E090E042E050E0A40EEC
:10205000B51EA1010E940C11D82ED2188FE7F82EC0
:10206000F122F6FE0BC05EEFF522D91438F4F4FE2F
:1020700007C0F2FC05C08FEEF82202C01D2D01C082
:10208000192DF4FE0DC0FE01ED0DF11D8081803390
:1020900019F499EEF92208C01F5FF2FE05C003C0D3
:1020A0008F2D867809F01F5F0F2DF3FC14C0F0FE12
:1020B0000FC01E1510F09D2C0BC09D2C9E0C911A6C
:1020C0001E2D06C080E290E0B3010E94E0101F5F69
:1020D0001E15C0F304C01E1510F4E11A01C0EE2451
:1020E00004FF0FC080E390E0B3010E94E01002FF04
:1020F0001DC001FD03C088E790E00EC088E590E0B8
:102100000BC0802F867891F001FF02C08BE201C0E6
:1021100080E2F7FC8DE290E0B3010E94E01006C07F
:1021200080E390E0B3010E94E0109A94D914C0F3C8
:10213000DA94F101ED0DF11D808190E0B3010E9470
:10214000E010DD20A9F706C080E290E0B3010E9414
:10215000E010EA94EE20C1F743CEF3016681778167
:10216000CB012B960FB6F894DEBF0FBECDBFCF913B
:10217000DF911F910F91FF90EF90DF90CF90BF9074
:10218000AF909F908F907F906F905F904F903F9017
:102190002F900895FC010590615070400110D8F710
:1021A000809590958E0F9F1F0895FC01615070409F
:1021B00001900110D8F7809590958E0F9F1F08957C
:1021C0000F931F93CF93DF938C01EB018B8181FFE2
:1021D0001BC082FF0DC02E813F818C819D812817FD
:1021E000390764F4E881F9810193F983E88306C033
:1021F000E885F985802F0995892B31F48E819F819F
:1022000001969F838E8302C00FEF1FEFC801DF91FD
:10221000CF911F910F910895FA01AA27283051F10B
:10222000203181F1E8946F936E7F6E5F7F4F8F4F07
:102230009F4FAF4FB1E03ED0B4E03CD0670F781F66
:10224000891F9A1FA11D680F791F8A1F911DA11D4B
:102250006A0F711D811D911DA11D20D009F4689484
:102260003F912AE0269F11243019305D3193DEF62C
:10227000CF010895462F4770405D4193B3E00FD0E2
:10228000C9F7F6CF462F4F70405D4A3318F0495DCD
:1022900031FD4052419302D0A9F7EACFB4E0A695B0
:1022A0009795879577956795BA95C9F700976105D2
:1022B000710508959B01AC010A2E06945795479528
:1022C00037952795BA95C9F7620F731F841F951F1D
:0822D000A01D0895F894FFCF52
:1022D8000D0A576169742E2057726974696E6720F8
:1022E800646174612E0D0A000D0A77726974746551
:1022F8006E206461746120307825782C2030782530
:10230800782C20307825782E0D0A00307825782C06
:1023180020307825782C2030782578207265616403
:1023280065642E0D0A000000000000000000000196
:10233800020203030303040404040404040405055B
:102348000505050505050505050505050505060633
:102358000606060606060606060606060606060615
:102368000606060606060606060606060606070703
:1023780007070707070707070707070707070707E5
:1023880007070707070707070707070707070707D5
:1023980007070707070707070707070707070707C5
:1023A80007070707070707070707070707070808B3
:1023B8000808080808080808080808080808080895
:1023C8000808080808080808080808080808080885
:1023D8000808080808080808080808080808080875
:1023E8000808080808080808080808080808080865
:1023F8000808080808080808080808080808080855
:102408000808080808080808080808080808080844
:102418000808080808080808080808080808080834
:0E242800080808080808080808080808080836
:00000001FF
